:060000000A128A110C280F
:10000800FE00030EF0000A08F1000A168A11572BA9
:100018000A128A110F288313B930FD001130FE002F
:100028008730FF00A03084000A168A114E210A1278
:100038008A116730FD001030FE00A230FF006230E8
:1000480084000A168A114E210A128A110A128A118C
:10005800FF260A128A11FB00B9308400CC300A1638
:100068008A11B4200A128A112030840049300A16F5
:100078008A11B4200A128A11FA0183010A128A111C
:1000880045280A168A116A240A128A11831603134C
:100098003608CF003708D0003808D100D201D40183
:1000A800CF3083120313C9000030CA00CB010A16EF
:1000B8008A1185260A128A11A630F5008830F600C2
:1000C80000300A168A11CB220A128A110A30F60069
:1000D8000030F7000A168A1125210A128A117308BE
:1000E800F9007208F8000A168A11AD240A128A115A
:1000F800760883160313D50064305502031C85283F
:10010800862888286330D50001300A128A153F21D5
:100118000A128A1183160313D600F430CC0001307A
:10012800CD00FF30CC070318CD0AFF30CD074C0AAD
:10013800031DA2284D0A031DA228A32895283E3096
:100148005606031DA828A928C528AF30F200883014
:10015800F300CF300A168A11DC210A128A11CF3037
:1001680083120313C9000030CA008316031355080D
:1001780083120313CB000A168A1185260A128A11E4
:10018800EE2B3D305606031DCA28CB28FD28063025
:1001980052020318D028D128FD28520883120313CD
:1001A800DF005F07A03E840083130008F200840A82
:1001B80000088403F300CF300A168A11DC210A12E2
:1001C8008A11CF3083120313C9000030CA00831686
:1001D8000313550883120313CB000A168A118526C8
:1001E8000A128A110130FF007F0883160313D20711
:1001F800EE2B3B305606031D0229032930295208ED
:1002080003190729082930290130D202520883121C
:100218000313DF005F07A03E840083130008F20089
:10022800840A00088403F300CF300A168A11DC21FF
:100238000A128A11CF3083120313C9000030CA0092
:1002480083160313550883120313CB000A168A1169
:1002580085260A128A11EE2B3730560603193529DE
:1002680036293C292F305606031D3B293C29702985
:100278005408031D402941297029D401D40A0A16BB
:100288008A1114210A128A11EB30F6008730F70020
:100298008130F8000A168A11F8220A128A11F2012E
:1002A800C5300A168A11BB230A128A11F2010F30CF
:1002B8000A168A11BB230A128A11A5308312031366
:1002C800DF00DF0B65296829023083160313D3008A
:1002D800831203131215EE2B80305606031D752961
:1002E8007629362A04305406031D7B297C29362AB0
:1002F800252A0830D4000A168A1114210A128A11F4
:10030800C43083120313C9008830CA00831603134C
:10031800550883120313CB000A168A1185260A1280
:100328008A118C30F6008730F7008030F8000A1602
:100338008A11F8220A128A11083083160313D3008F
:10034800EE2B0A30D4000A168A1114210A128A11D7
:10035800443083160313D300EE2B1430D4000A164E
:100368008A1114210A128A11C13083120313C90099
:100378008830CA0083160313550883120313CB0071
:100388000A168A1185260A128A11BD30F6008730AE
:10039800F7008030F8000A168A11F8220A128A112A
:1003A800333083120313E100BB30E000DF30DF009D
:1003B800DF0BDC29E00BDC29E10BDC290530831697
:1003C8000313D300EE2B2830D4000A168A11142107
:1003D8000A128A11D03083120313C9008830CA0068
:1003E80083160313550883120313CB000A168A11C8
:1003F80085260A128A11303083160313D300EE2B98
:100408005030D4000A168A1114210A128A11DC30DD
:10041800F6008730F7008030F8000A168A11F822B3
:100428000A128A11F201C5300A168A11BB230A1270
:100438008A11F2010F300A168A11BB230A128A1197
:1004480061294E08003A03197D29013A0319A529A3
:10045800033A0319B129013A0319E729073A03199D
:10046800042AEE2B80305606031D3B2A3C2A4A2AD2
:1004780008305406031D412A422A4A2A0430D4006F
:100488000A168A1114210A128A11EE2B8030560698
:10049800031D4F2A502A6C2A50305406031D552A32
:1004A800562A6C2A0430D400F2010C300A168A113C
:1004B800BB230A128A11A53083120313DF00DF0B56
:1004C800632A662A0A168A1114210A128A11EE2B47
:1004D80090305606031D712A722A7A2A043054066F
:1004E800031D772A782A7A2AD401442AEE2B550844
:1004F80083120313CB00CF300A168A112E260A1254
:100508008A110A2C83160313D401831203131211C0
:10051800F2010C300A168A11BB230A128A11A5307F
:1005280083120313DF00DF0B972A9A2A0A168A110F
:1005380014210A128A110A2C0A168A1114210A1285
:100548008A11043083160313D4008312031312157F
:10055800F2010C300A168A11BB230A128A11A5303F
:1005680083120313DF00DF0BB72ABA2A053083167C
:100578000313D3006A28530883120313CB0083168E
:10058800031356080A128A1556260A128A11013AC6
:100598000319A02A323A0319862A0A2C0A168A1144
:1005A80014210A128A1183160313D4018312031328
:1005B80012110A2C83160313CE010A2C8316031377
:1005C800CE01CE0A0A2C023083160313CE000A2C61
:1005D800033083160313CE000A2C0430831603134A
:1005E800CE000A2C530883120313CB00831603137F
:1005F80056080A128A15D4210A128A11003A0319D8
:10060800DE2A013A0319E22A033A0319E72A013AD2
:100618000319EC2A073A0319F12A373A0319D22A9F
:100628000A2C530883120313CB00831603135608AE
:100638000A128A15A5230A128A11333A031D252B9B
:10064800262B0A2C0A168A1114210A128A118316DB
:100658000313D401053083160313D3000A2C53085F
:100668000A168A114A220A128A11113A031D3D2BD1
:100678003E2B4D2B1A3083120313E1005E30E0004D
:100688006D30DF00DF0B462BE00B462BE10B462BD2
:100698004D2B4430831603135306031D542B552B3F
:1006A800662BBE3083120313C9008830CA00831634
:1006B8000313550883120313CB000A168A118526E3
:1006C8000A128A11043083160313D4000530D300AC
:1006D8009A2A0A128A1580220A128A11662B53084E
:1006E80083120313CC008316031356080A128A11C7
:1006F80011240A128A11113A031D832B842B0A2C08
:10070800043083160313D4000530D3000A168A1167
:1007180014210A128A116A281A3083120313E1007D
:100728005E30E0006D30DF00DF0B982BE00B982B7C
:10073800E10B982B9F2BCA3083120313C900883012
:10074800CA0083160313550883120313CB000A1635
:100758008A1185260A128A11043083160313D400DD
:100768000530D300831203131215F2010C300A1658
:100778008A11BB230A128A11932A0A168A11142194
:100788000A128A1183160313D40183120313121158
:10079800F2010C300A168A11BB230A128A11A530FD
:1007A80083120313DF00DF0BD72BDA2B2E2B530812
:1007B80083120313CB008316031356080A128A15F3
:1007C800DD240A128A11113A0319902B223A0319CF
:1007D800C12B0A2C831603135408003A03197B2AE9
:1007E800013A0319BF2A053A0319F62A0C3A0319E4
:1007F800152B023A0319332B1E3A03196D2B3C3A79
:100808000319732B783A0319DB2B0A2C831603136D
:10081800D3016A280A128A110C2883120313D00004
:1008280030304C06031D192C1A2C912C0A168A11EB
:100838003B250A128A110F30831203133F05CD009E
:100848003E080F39CE00CF014E08F2004F08F300E2
:100858000A30F4000030F5000A168A11FF210A1246
:100868008A11831203134D087207A0000030031881
:1008780001307307A1000F304105CD0040080F3942
:10088800CE00CF014E08F2004F08F3000A30F40002
:100898000030F5000A168A11FF210A128A11831204
:1008A80003134D087207A2000030031801307307C4
:1008B800A3000F304305CD0042080F39CE00CF0109
:1008C8004E08F2004F08F3000A30F4000030F5003B
:1008D8000A168A11FF210A128A11831203134D087E
:1008E8007207A4000030031801307307A5009D307B
:1008F800F6008730F7008030F8000A168A11F822CF
:100908000A128A11023083120313AF000030B000BC
:10091800B701B601B5013F30D00035080319952C51
:10092800962CA72D2230DD2E2F08CD004D07203E16
:100938008400013083138007840A0318800AB22DCB
:100948000330F2000030F3002F08013EF4003008B5
:100958000318013E003EF5000A168A11F1230A1217
:100968008A11730883120313B0007208AF00B22D06
:100978000A168A113B250A128A110A30F200003041
:10098800F300831203132108F5002008F4000A1667
:100998008A11F1230A128A11720883120313CD00F7
:1009A8007308CE000A30F6000030F7002108F9007D
:1009B8002008F8000A168A11AD240A128A1176084E
:1009C80083120313CF0003300310CF0DFF3E031D26
:1009D800E82C03104F0D4D04D1002608C0395104EE
:1009E800A6002608F30002300A168A11A0210A126E
:1009F8008A110A30F2000030F3008312031323082F
:100A0800F5002208F4000A168A11F1230A128A1145
:100A1800720883120313CD007308CE000A30F60063
:100A28000030F7002308F9002208F8000A168A1196
:100A3800AD240A128A11760883120313CF000330FB
:100A48000310CF0DFF3E031D242D03104F0D4D0441
:100A5800D100270880395104A7002708F300013086
:100A68000A168A11A0210A128A110A30F2000030EF
:100A7800F300831203132508F5002408F4000A166E
:100A88008A11F1230A128A11720883120313CD0006
:100A98007308CE000A30F6000030F7002508F90088
:100AA8002408F8000A168A11AD240A128A11760859
:100AB80083120313CF0003300310CF0DFF3E031D35
:100AC800602D03104F0D4D04D100280880395104C2
:100AD800A8002808F30000300A168A11A0210A127B
:100AE8008A11F20101300A168A11BB230A128A11EF
:100AF8002430F6008830F7008230F8000A168A1190
:100B0800F8220A128A114B30F6008830F700C230FA
:100B1800F8000A168A11F8220A128A11831203139E
:100B2800B501B50A1A3083120313CF005E30CE0028
:100B38006D30CD00CD0B9E2DCE0B9E2DCF0B9E2D57
:100B4800A52D1130DD2E50082F3A0319A42C183A80
:100B58000319982CB73A0319BC2CB22D0030210286
:100B6800183003192002031CBA2DBB2DBD2DA0017E
:100B7800A101003023023C3003192202031CC52DB9
:100B8800C62DC82DA201A301003025023C3003194F
:100B98002402031CD02DD12DD32DA401A501013091
:100BA800FF007F08B70702303706031DDC2DDD2D57
:100BB8002F2EB70136080319E22DE42D0130E52D5B
:100BC8000030B60036080319EA2DEB2D2F2E1F2E04
:100BD8007930F6008830F700C030F8000A168A111C
:100BE800F8220A128A11053083120313CF000F303E
:100BF800CE00F030CD00CD0BFF2DCE0BFF2DCF0B4F
:100C0800FF2D00002F2E7930F6008830F700C33012
:100C1800F8000A168A11F8220A128A11F72D79307B
:100C2800F6008830F700C630F8000A168A11F82254
:100C38000A128A11F72D3008003A0319242E2F2E94
:100C48002F08003A0319EC2D013A0319072E033A2D
:100C58000319132E2F2EC03083120313C9000A3034
:100C6800F2000030F3002008CD00CE014D08F4005A
:100C78004E08F5000A168A1199270A128A11720875
:100C8800303E0A168A115D210A128A11C130831278
:100C98000313C9000A30F2000030F3002108F50000
:100CA8002008F4000A168A11F1230A128A11720820
:100CB800303E0A168A115D210A128A11C230831247
:100CC8000313C9003A300A168A115D210A128A11E3
:100CD800C33083120313C9000A30F2000030F30056
:100CE8002208CD00CE014D08F4004E08F5000A1682
:100CF8008A1199270A128A117208303E0A168A1137
:100D08005D210A128A11C43083120313C9000A3004
:100D1800F2000030F3002308F5002208F4000A1658
:100D28008A11F1230A128A117208303E0A168A11B2
:100D38005D210A128A11C53083120313C9003A30A3
:100D48000A168A115D210A128A11C630831203130A
:100D5800C9000A30F2000030F3002408CD00CE01AB
:100D68004D08F4004E08F5000A168A1199270A1250
:100D78008A117208303E0A168A115D210A128A11F8
:100D8800C73083120313C9000A30F2000030F300A1
:100D98002508F5002408F4000A168A11F1230A121E
:100DA8008A117208303E0A168A115D210A128A11C8
:100DB800962C0800F2000A168A11FA200A128A11E3
:100DC8008316031391150A168A11FA200A128A113A
:100DD800831203131308F3007203031DF42EF52E78
:100DE800F92E831603139116FC2E83160313911202
:100DF8001116730808003F3420342334203420347B
:100E0800203420342034543469346D34653420342B
:100E18002034203420342034203420342034453405
:100E2800763465346E3474342034203420342034DD
:100E380020342034203453347034653465346434B9
:100E480000344E346F3420346C346F346734733468
:100E5800203461347634613469346C3461346234FA
:100E68006C346534003420342034203420344E343B
:100E78006F3420346C346F34673473342034203446
:100E880020342034203400345034613473347334C3
:100E980077346F34723464342034633468346134A2
:100EA8006E346734653464340034523465342D3418
:100EB80065346E3474346534723420346E34653479
:100EC80077342034703477346434003450346134E7
:100ED8007334733477346F34723464342034203488
:100EE8006334683461346E3467346534003455349F
:100EF80041345234543420345434653473347434A3
:100F0800203443346F34643465340A340D34003487
:100F180023342034543449344D3445342034203477
:100F28002034203420344534203420345334503491
:100F38000034543469346D346534203428344834EA
:100F480048343A344D344D343A34533453342934D4
:100F5800003459346F347534203461347234653454
:100F6800203442346C346F3463346B346534643405
:100F7800003420344F34503445344E342034543403
:100F88004534523441345434453452344D34203489
:100F98000034573472346F346E346734203450342C
:100FA80061347334733477346F3472346434003496
:100FB80045346E3474346534723420344E346534B8
:100FC800773420345034773464343A340034453438
:100FD8006E3474346534723420345034613473346C
:100FE800733477346F34723464340034433468347F
:100FF80061346E346734653420345034613473346A
:1010080073347734643400344C346F34673469345F
:101018006E34203453347534633463346534733434
:101028007334003461347434743465346D3470341A
:101038007434733420346C34653466347434003456
:10104800543469346D34653420346334683461341D
:101058006E3467346534643400344C346F34673428
:101068007334203463346C346534613472346534D9
:101078006434003444346F3477346E346C346F34F1
:101088006134643420344C346F346734003453345E
:101098007534633463346534733473346634753447
:1010A8006C346C3479340034733475346334633499
:1010B800653473347334663475346C346C34793411
:1010C80000345734613469347434203466346F34EE
:1010D80072342E342E342E3400342034203420340C
:1010E8002034203420342034203420342034003478
:1010F80043346C3465346134723420344C346F3486
:1011080067340034533465347434203454346934C7
:101118006D3465340034563469346534773420349A
:101128004C346F34673400344C346F346734733460
:1011380020343A3400346634613469346C346534AC
:10114800643400343134303431343034003473345E
:101158006534633400344334203400344734313444
:10116800003447343234003447343334003447349D
:101178003434003443344C34003444344C34003474
:1011880056344C34003447344E34003443345034ED
:0E11980000344734523400345334543400349D
:1011AE00003083120313CD000030CC000030CB0092
:1011BE000030CA0075087404730472040319E82819
:1011CE00E9283629CE01CE0AF9280130C9000310CC
:1011DE00F20DF30DF40DF50DC90BEE280130FF00E5
:1011EE007F08CE07F51FFC28FD28EC280130C9002A
:1011FE000310CA0DCB0DCC0DCD0DC90BFF287508F4
:10120E007902031D142974087802031D142973082A
:10121E007702031D142972087602031C1729182958
:10122E0027297208F6027308031C730FF70274085D
:10123E00031C740FF8027508031C750FF9024A148B
:10124E0001300310F50CF40CF30CF20CFF3E031DF1
:10125E0028290130CE02031D35293629FD284D08D7
:10126E00F5004C08F4004B08F3004A08F2000800A1
:10127E00F6008312031306083F39F7000230F4001C
:10128E004530F300A930F200F20B4B29F30B4B293A
:10129E00F40B4B2952297608031D56295729592933
:1012AE007708D3297603031D5D295E299E293F30D9
:1012BE00770603196329642972293F307B06031DC3
:1012CE0069296A2972297708FB0083120313B10179
:1012DE00B201FA01A0293F307706031D772978293C
:1012EE00A0293F307B0603197D297E29A029831270
:1012FE0003133208803AFF0080307F02031D8929D4
:10130E000A30310203188C298D2998297A08031D79
:10131E009129922998297B08F5003F30FB0075082A
:10132E00D3293F30FB0083120313B101B2013F30CA
:10133E00D3293F307B060319A529A6299E29013002
:10134E0083120313B1070318B20A0030B207320832
:10135E00803AFF0080307F02031DB7290A30310228
:10136E00031CBA29BB299E297A08031DBF29C0294F
:10137E009E29FA01FA0A37307B06031DC729C829B0
:10138E00CA298030D3292F307B06031DCF29D029BF
:10139E00D2299030D3299E29080083120313CE0040
:1013AE003D08031DDB29DC29DE2933307F2A053079
:1013BE004B06031DE329E429E7290F30BD00B901CF
:1013CE0037304E06031DEC29ED29FC293908031987
:1013DE00F129F229FC290F30BD000130B9020A169D
:1013EE008A1114210A128A150F2A2F304E06031D58
:1013FE00012A022A0F2A043039020318072A082A62
:10140E000F2A0F30BD000130FF007F08B907F62903
:10141E000430831203133906031D162A172A4A2A8B
:10142E00C030C9002A300A168A115D210A128A15A7
:10143E00831203133908CC004C07AA3E8400831391
:10144E000008F600840A00088403F7008230F800D2
:10145E000A168A11F8220A128A1583120313390802
:10146E00CC004C07AC3E840083130008F600840ABF
:10147E0000088403F700C230F8000A168A11F82219
:10148E000A128A157C2A8030C9002A300A168A115F
:10149E005D210A128A15831203133908CC004C07FA
:1014AE00AC3E840083130008F600840A000884030F
:1014BE00F7008230F8000A168A11F8220A128A15ED
:1014CE00831203133908CC004C07AE3E84008313FD
:1014DE000008F600840A00088403F700C230F80002
:1014EE000A168A11F8220A128A1583120313390872
:1014FE000800FF3083120313D700FF30D800D3014A
:10150E00620A031D8E2A630A031D8E2A8F2A992AC8
:10151E002530F3008730F4000A168A1124220A12AD
:10152E008A15A42B9830F3008830F4000A168A111D
:10153E0024220A128A150A300A168A11E4200A1287
:10154E008A150030F3008730F4000A168A1124221F
:10155E000A128A150A300A168A11E4200A128A150E
:10156E00942B831203135708013ED5005808031815
:10157E00013E003ED6000130D7070318D80A0030CE
:10158E00D807D901DA010A30F20083120313550885
:10159E000A168A1172210A128A1583120313590729
:1015AE00053ED4005908493E840054080A168A1193
:1015BE00A0220A128A1583138000013083120313AE
:1015CE00D9070318DA0A0030DA075A08803AFF0002
:1015DE0080307F02031DF52A0A305902031CF82AB7
:1015EE00F92ACA2A831203135808803AFF00803062
:1015FE007F02031D042B0A3057020318072B082BFA
:10160E000E2B20300A168A11E4200A128A15831234
:10161E0003135708303E0A168A11E4200A128A155F
:10162E007830F3008830F4000A168A1124220A1248
:10163E008A158312031349080A168A11E4200A1226
:10164E008A15831203134A080A168A11E4200A1215
:10165E008A153A300A168A11E4200A128A15831264
:10166E0003134B080A168A11E4200A128A158312F4
:10167E0003134C080A168A11E4200A128A153A300E
:10168E000A168A11E4200A128A15831203134D08D2
:10169E000A168A11E4200A128A15831203134E08C1
:1016AE000A168A11E4200A128A157530F300883062
:1016BE00F4000A168A1124220A128A1583120313C1
:1016CE004F080A168A11E4200A128A158312031390
:1016DE0050080A168A11E4200A128A157130F30096
:1016EE008830F4000A168A1124220A128A158312EF
:1016FE00031351080A168A11E4200A128A1583125E
:10170E00031352080A168A11E4200A128A150A30A7
:10171E000A168A11E4200A128A1583120313580836
:10172E00803AF6006308803A7602031DA02B620809
:10173E005702031CA32BA42BB82A080083120313F1
:10174E00DE00620A031DAF2B630A031DAF2BB02B05
:10175E00BC2B3730F6008730F700C030F8000A1681
:10176E008A11F8220A128A15DC2C08304B06031D4A
:10177E00C12BC22BC32BB80137305E06031DC82BFD
:10178E00C92BD12B38080319CD2BCE2BD12B0130E1
:10179E00B8020E2C37305E06031DD62BD72BDF2B4F
:1017AE003808031DDB2BDC2BDF2B6208B8000E2C58
:1017BE002F305E06031DE42BE52BF72B6308803AD2
:1017CE00803C031DEC2B620838020318EF2BF02B24
:1017DE00F72B0130FF007F0883120313B8070E2C7E
:1017EE002F30831203135E06031DFE2BFF2B0E2CD0
:1017FE003808CC00CD0163084D06031D082C620885
:10180E004C06031D0B2C0C2C0E2CB8010E2C9030FC
:10181E005E06031D132C142C162C3330DC2C3808CA
:10182E00CC00CD014C08D9004D08DA00DC01DD01F9
:10183E000A30F2008312031359080A168A11722114
:10184E000A128A15831203135C07053EDB005C083F
:10185E004E3E84005B080A168A11A0220A128A15CF
:10186E0083138000013083120313DC070318DD0A93
:10187E000030DD075D08803AFF0080307F02031DD7
:10188E004A2C0A305C02031C4D2C4E2C1F2C83124A
:10189E000313D801C030C9003808303E0A168A1129
:1018AE005D210A128A15C23083120313C9004E0835
:1018BE000A168A115D210A128A15C3308312031388
:1018CE00C9004F080A168A115D210A128A15C43002
:1018DE0083120313C9003A300A168A115D210A12C7
:1018EE008A15C53083120313C90050080A168A11CF
:1018FE005D210A128A15C63083120313C9005108DE
:10190E000A168A115D210A128A15C7308312031333
:10191E00C9003A300A168A115D210A128A15C8309A
:10192E0083120313C90052080A168A115D210A1286
:10193E008A15C93083120313C90053080A168A1177
:10194E005D210A128A15CB3083120313C900540885
:10195E000A168A115D210A128A15CC3083120313DE
:10196E00C90055080A168A115D210A128A15CE3051
:10197E0083120313C90056080A168A115D210A1232
:10198E008A15CF3083120313C90057080A168A111D
:10199E005D210A128A15043083120313CD003D30E7
:1019AE00CC00CC0BD82CCD0BD82C080083120313F3
:1019BE00CF0002304B06031DE52CE62CFC2CAD01AE
:1019CE00AE01AB01AC01B401B301C501C601C70143
:1019DE00C80183160313C401C501C601C7013F30F8
:1019EE0083120313CF000530BD003D08031D002DEB
:1019FE00012D032D3330552E34080319072D082DD4
:101A0E000A2D2230552E3308031D0E2D0F2D8A2D33
:101A1E0037304F06031D142D152D382D00302E0294
:101A2E00043003192D0203181D2D1E2D382D2D08DF
:101A3E00453E84003130831380002D08C63EC90018
:101A4E002A300A168A115D210A128A150130831274
:101A5E000313AD070318AE0A0030AE070530BD0004
:101A6E00572D2F304F06031D3D2D3E2D572D003087
:101A7E002E02043003192D020318462D472D572D23
:101A8E002D08453E84003030831380002D08C63E5D
:101A9E00C9002A300A168A115D210A128A152D2DC7
:101AAE0004302D062E04031D5D2D5E2D082D0A1605
:101ABE008A1114210A128A155930F6008730F70060
:101ACE008030F8000A168A11F8220A128A15F201DD
:101ADE00C5300A168A11BB230A128A15F2010F307D
:101AEE000A168A11BB230A128A15A5308312031314
:101AFE00CC00CC0B802D832D83120313B301B30ABC
:101B0E00AB01AC01082D3303031D8E2D8F2D082D37
:101B1E00BA2D2B08C43E84003030831380002B086E
:101B2E00C63EC9002A300A168A115D210A128A158C
:101B3E00013083120313AB070318AC0A0030AC0755
:101B4E000530BD00C22D2B08C43E840031308313F6
:101B5E0080002B08C63EC9002A300A168A115D2164
:101B6E000A128A159F2D4F082F3A0319902D183AF5
:101B7E000319AA2DC22D04302B062C04031DC82DCB
:101B8E00C92D082DC430F2000430F3000030F400EB
:101B9E0045300A168A1188250A128A1572087304AE
:101BAE00031DDA2DDB2D272E4930F5000030F6000F
:101BBE0000300A168A11CB220A128A1583120313D9
:101BCE00B401B40A0A168A1114210A128A15F201F6
:101BDE000C300A168A11BB230A128A15A5308312FD
:101BEE000313CC00CC0BF92DFC2D4830F6008730BA
:101BFE00F7008030F8000A168A11F8220A128A15A8
:101C0E005830F6008830F700C230F8000A168A11F4
:101C1E00F8220A128A151A3083120313CE005E3090
:101C2E00CD006D30CC00CC0B1A2ECD0B1A2ECE0B58
:101C3E001A2E212E0F3083120313BD001130552E94
:101C4E000A168A1114210A128A15F2010C300A168C
:101C5E008A11BB230A128A15A53083120313CC00F6
:101C6E00CC0B372E3A2E6A30F6008730F7008030D4
:101C7E00F8000A168A11F8220A128A159F30F60009
:101C8E008830F700C530F8000A168A11F8220A12B9
:101C9E008A1583120313B401B40A122E080083129C
:101CAE000313D30002304B06031D5E2E5F2E6E2EE5
:101CBE000330BA00BB0183160313C801C901CA0160
:101CCE00CB013F3083120313D3000530BD003D0816
:101CDE00031D722E732E752E3330FF2F37305306A1
:101CEE00031D7A2E7B2E992E04303B020318802E74
:101CFE00812E992E3B08C83E84003130831380001C
:101D0E003B08C63EC9002A300A168A115D210A1206
:101D1E008A150130FF007F0883120313BB070530BD
:101D2E00BD00B52E2F305306031D9E2E9F2EB52EB1
:101D3E0004303B020318A42EA52EB52E3B08C83E38
:101D4E0084003030831380003B08C63EC9002A3021
:101D5E000A168A115D210A128A15902E04303B064E
:101D6E00031DBA2EBB2EFF2FD401D50183120313F0
:101D7E0054084F3E840054080A168A11A0220A12F3
:101D8E008A1583138000013083120313D4070318BE
:101D9E00D50A0030D5075508803AFF0080307F0203
:101DAE00031DDB2E04305402031CDE2EDF2EBD2E4F
:101DBE004F30F2000430F3000030F400C8300A1641
:101DCE008A1188250A128A1572087304031DF02ED3
:101DDE00F12E1F2F0A168A1114210A128A15F201EA
:101DEE000C300A168A11BB230A128A15A5308312EB
:101DFE000313CC00CC0B012F042F0830F6008830D3
:101E0E00F7008230F8000A168A11F8220A128A1593
:101E1E00333083120313CE00BB30CD00DF30CC0045
:101E2E00CC0B172FCD0B172FCE0B172F0130FF2FEB
:101E3E00013083120313BA023A08031D272F282FED
:101E4E00982F0A168A1114210A128A15F2010C30E3
:101E5E000A168A11BB230A128A15AD30F600873096
:101E6E00F7008030F8000A168A11F8220A128A1535
:101E7E006530F6008830F700C030F8000A168A1177
:101E8E00F8220A128A15AB30F6008830F700CD30F2
:101E9E00F8000A168A11F8220A128A153C308312AB
:101EAE000313BC008E2FCB30C9000A30F200003075
:101EBE00F3003C08CC00CD014C08F4004D08F500B1
:101ECE000A168A1199270A128A157208303E0A16C6
:101EDE008A115D210A128A15CC3083120313C900B0
:101EEE000A30F2000030F3003C08CC00CD014C0863
:101EFE00F4004D08F5000A168A11DD260A128A151D
:101F0E007208303E0A168A115D210A128A15831252
:101F1E0003133C08031D942F952F5A2F0330BA003C
:101F2E00D32F0A168A1114210A128A15F2010C30C7
:101F3E000A168A11BB230A128A15CD30F600873095
:101F4E00F7008030F8000A168A11F8220A128A1554
:101F5E00C03083120313C9003A08303E0A168A11A4
:101F6E005D210A128A151630F6008830F700C2304D
:101F7E00F8000A168A11F8220A128A1533308312D3
:101F8E000313CE00BB30CD00DF30CC00CC0BCD2FF9
:101F9E00CD0BCD2FCE0BCD2F0A168A1114210A127E
:101FAE008A15053083120313BD00EB30F60087301F
:101FBE00F7008130F8000A168A11F8220A128A15E3
:101FCE00F201C5300A168A11BB230A128A15F201D4
:101FDE000F300A168A11BB230A128A15A5308312F6
:101FEE000313CC00CC0BF92FFC2F83120313BB0170
:101FFE000800FF1B0A2883137F1883170008840A22
:10200E000319FF0A08007F087F398A000408840A32
:06201E000319FF0A820015
:10214400FF34FF34FF34FF340534831603130608C9
:102154003F3886000800831603139F178312031366
:102164001F14080064008001840A04060319003463
:102174000406B5280A168A11FA200A168A1183164B
:102184000313111408000A168A11FA200A168A1178
:1021940083160313111508000A168A11C5200A169E
:1021A4008A110A168A11BC200A168A110800F20044
:1021B4000A168A11FA200A168A1172088312031366
:1021C40093000800F20072088312031399000C1E96
:1021D400EC28ED28E9280C12080083160313880163
:1021E400091189100A168A1136270A168A1108005D
:1021F400831603131419FF280029FA2811081F391C
:10220400031D05290629FA28080083120313121452
:102214009214FA308316031392008C14831203135E
:1022240012110800F20101300A168A11BB230A16A2
:102234008A110430F7003D30F600F60B1F29F70B26
:102244001F2924290800831203131F151F192B2982
:102254002C2928291E08F500831603131E08F400F0
:102264007508F3007408F200080000300A168A1199
:1022740075220A168A11F60076087F39F600760868
:10228400F30000300A168A11A0210A168A110800E8
:102294007E088A007F0882000A168A114A210A16DB
:1022A4008A118000840A04087D0603190034FF0A99
:1022B4000319FE0A4E2983120313CA00F2014908C6
:1022C4000A168A11BB230A168A11F201F20A831232
:1022D40003134A080A168A11BB230A168A11080036
:1022E400F400F301741C772978297C297208FF0013
:1022F4007F08F3070310F20D0310F40C7408031D98
:1023040084298529742973080800C7348834CD3496
:102314008834B2348834B5348834B8348834BB341F
:1023240088348F3488347C3488343E34883486341A
:102334008834FA3487344F344E340034F4000A16A7
:102344008A11BC200A168A11D0300A168A11D920A3
:102354000A168A1174080A168A11D9200A168A11D3
:1023640073080A168A11D9200A168A110A168A11C4
:10237400C5200A168A110800F4000A168A11BC2026
:102384000A168A11A0300A168A11D9200A168A114F
:1023940074080A168A11D9200A168A1173080A16B3
:1023A4008A11D9200A168A110A168A11C5200A161A
:1023B4008A110800F7007708F6007308F500720820
:1023C400F400F20A0319F30A750883120313FF00D9
:1023D400740884000A168A1100200A168A11FF0064
:1023E400760884000130F6077F0883138000000814
:1023F400031DFD29FE29DF290800F601F701721CDF
:10240400042A052A0B2A7408F6070318F70A750824
:10241400F70701300310F40DF50DFF3E031D0C2AE0
:1024240001300310F30CF20CFF3E031D132A720853
:102434007304031D1E2A1F2A012A7708F300760855
:10244400F2000800392A7408FF00730884000A1691
:102454008A1100200A168A110A168A11E4200A1623
:102464008A110130F3070318F40A0030F4077408E2
:1024740083120313FF00730884000A168A110020D4
:102484000A168A11003A031D482A492A252A0800F7
:10249400F90044307906031D502A512A732AFF306B
:1024A40083120313E400FF30E500FF30E200FF3045
:1024B400E3003130F6008830F7008230F8000A1665
:1024C4008A11F8220A168A115830F6008830F7006B
:1024D400C230F8000A168A11F8220A168A1111303D
:1024E400742A22300800F4000A168A11BC200A1645
:1024F4008A11D0300A168A11D9200A168A11740852
:102504000A168A11D9200A168A110A168A11CE20AF
:102514000A168A11D1300A168A11D9200A168A118C
:1025240000300A128A11DE260A168A11F5000A16EC
:102534008A11C5200A168A1175080800F4000A16C3
:102544008A11BC200A168A11A0300A168A11D920D1
:102554000A168A1174080A168A11D9200A168A11D1
:102564000A168A11CE200A168A11A1300A168A1177
:10257400D9200A168A1100300A128A11DE260A1698
:102584008A11F5000A168A11C5200A168A117508DF
:102594000800F700E72A7608FF00750884000A1689
:1025A4008A1100200A168A11F30077080A168A1184
:1025B400BE210A168A110130F5070318F60A003005
:1025C400F6070130FF007F08F7077608831203132C
:1025D400FF00750884000A168A1100200A168A1161
:1025E400003A031DF62AF72ACD2A0800F2017808DA
:1025F4000A168A11BB230A168A11162BF201F20A53
:102604007708FF00760884000A168A1100200A164B
:102614008A110A168A11BB230A168A110130F60799
:102624000318F70A0030F707770883120313FF0033
:10263400760884000A168A1100200A168A11003AC4
:10264400031D252B262B002B080083120313981738
:1026540018164F08D3005008D4005108D50052086A
:10266400D60004300310D30DD40DD50DD60DFF3E86
:10267400031D342B5608F5005508F4005408F300E4
:102684005308F2000130F9003130F8002D30F70022
:102694000030F6000A128A15D7200A168A11720829
:1026A400FF3E8316031399000800831203138C1C46
:1026B4005C2B5D2B822B0130A9070318AA0A00307A
:1026C400AA07E2302906043003192A06031D6B2BDE
:1026D4006C2B812B3C080319702B712B732B01304D
:1026E400BC023C08031D772B782B7F2B3D08031974
:1026F4007C2B7D2B7F2B0130BD02A901AA018C10FC
:1027040071088A00700E8300FE0E7E0E090083128B
:10271400031394154F08D3005008D4005108D50072
:102724005208D60002300310D30DD40DD50DD60DAA
:10273400FF3E031D952B5608F5005508F400540878
:10274400F3005308F2000130F9003130F8002D3065
:10275400F7000030F6000A128A15D7200A168A11EB
:102764007208FF3E83160313930083120313941617
:102774000800F5007218BF2BC32B8312031309152D
:10278400C62B8312031309117508F03988008914C4
:10279400A630F300F30BCC2B000083120313891033
:1027A40075080F39F30003300310F30DFF3E031DCA
:1027B400D62B0310730D88008914A630F300F30B95
:1027C400E12B00008312031389101B30F4009E30A8
:1027D400F300F30BEB2BF40BEB2B00000800720857
:1027E40073040319F62BF72B262CF601F60A052C95
:1027F40001300310F20DF30DFF3E031DFB2B0130DE
:10280400FF007F08F607F31F082C092CFA2B730826
:102814007502031D0F2C72087402031C122C132C56
:10282400192C7208F4027308031CF503F502013035
:102834000310F30CF20CFF3E031D1A2C0130F602B8
:10284400031D252C262C092C7508F3007408F200AE
:102854000800013083120313E4070318E50A00306B
:10286400E5070A3064066504031D392C3A2C3C2C18
:10287400E401E5010A30F20064080A168A117221A3
:102884000A168A11053E83120313E600B930F500D7
:102894000030F60066080A168A11CB220A168A113D
:1028A400831203136308803AFF0080307F02031D04
:1028B4005D2C093062020318602C612C692C0130F4
:1028C40083120313E2070318E30A0030E307080046
:1028D400003083120313D2000130D1008630D000BF
:1028E400A030CF000A168A1189230A168A110A1603
:1028F4008A1137210A168A110A168A11EF200A163C
:102904008A110A168A11A7200A168A110A168A1130
:10291400AD200A168A110A168A1107210A168A118D
:102924008B170B17003083120313D2000030D10031
:102934002530D0008030CF000A168A1127230A16CA
:102944008A117B30F3008730F4000A168A1124229E
:102954000A168A11080083120313CA01CB017608F0
:1029640077040319B62CB72CEE2CC901C90AC52C5F
:1029740001300310F60DF70DFF3E031DBB2C013093
:10298400FF007F08C907F71FC82CC92CBA2C0130D7
:102994000310CA0DCB0DFF3E031DCA2C7708790224
:1029A400031DD62C76087802031CD92CDA2CE12CD2
:1029B4007608F8027708031CF903F9024A14013077
:1029C4000310F70CF60CFF3E031DE22C0130C90284
:1029D400031DED2CEE2CC92C4B08F7004A08F60019
:1029E4000800F8007808F9001D2D0130F4020030C9
:1029F400031CF503F5027308F7007208F600F20AE7
:102A04000319F30A770883120313FF00760884007E
:102A14000A168A1100200A168A11FF007908840018
:102A24000130F9077F08831380000008031D1B2D64
:102A34001C2D1D2D2C2D74087504031D222D232DF2
:102A4400F72C2C2D79088400831380010130FF00BA
:102A54007F08F9070130F4020030031CF503F50286
:102A6400740A031D392D750A031D392D3A2D242DA1
:102A7400080002300A168A1175220A168A11831276
:102A84000313A60001300A168A1175220A168A1148
:102A940083120313A70000300A168A1175220A163E
:102AA4008A1183120313A8002608F60004300310C9
:102AB400F60CFF3E031D592D76080339303EBE0047
:102AC40026080F39303EBF002708F60004300310F3
:102AD400F60CFF3E031D692D76080739303EC00011
:102AE40027080F39303EC1002808F60004300310CF
:102AF400F60CFF3E031D792D76080739303EC200DF
:102B040028080F39303EC300C4010800F700013023
:102B1400F3020030031CF403F402730A031D962D20
:102B2400740A031D962D972DA82DF201F301D72DBC
:102B34000130FF007F08F7070130FF007F08F2072C
:102B44000130F3020030031CF403F402770884001C
:102B5400831300080319AF2DB02DC92D720884000A
:102B640000080319B62DB72DC92D73087404031971
:102B7400BC2DBD2DC92D720884000008F50077080E
:102B84008400000875060319C82DC92D9A2D7208F2
:102B940084000008F500770884000008F600750832
:102BA4007602F200F301031CF30308000A168A11EB
:102BB4003B250A168A11C03083120313C9003E084C
:102BC4000A168A115D210A168A11C1308312031371
:102BD400C9003F080A168A115D210A168A11C230FB
:102BE40083120313C9003A300A168A115D210A16AA
:102BF4008A11C33083120313C90040080A168A11CC
:102C04005D210A168A11C43083120313C9004108D6
:102C14000A168A115D210A168A11C530831203131C
:102C2400C9003A300A168A115D210A168A11C63083
:102C340083120313C90042080A168A115D210A1679
:102C44008A11C73083120313C90043080A168A1174
:102C54005D210A168A11080083120313CE008E30F8
:102C6400F6008730F7008230F8000A168A11F8223D
:102C74000A168A110A168A11D8250A168A1183128D
:102C840003134E08F6000030F700CB30F8000A16A4
:102C94008A11F8220A168A11CE3083120313C9004E
:102CA4000A30F2000030F3004B08CC00CD014C0890
:102CB400F4004D08F5000A168A1199270A168A119C
:102CC4007208303E0A168A115D210A168A11CF3025
:102CD40083120313C9000A30F2000030F3004B08DA
:102CE400CC00CD014C08F4004D08F5000A168A11F9
:102CF400DD260A168A117208303E0A168A115D21F1
:102D04000A168A1108000A168A113B250A168A1126
:102D14003E30F2000030F3000630F4000030F500DD
:102D2400B9300A168A11F3240A168A11831203137E
:102D34004908F2004A08F3000230F4000030F500BC
:102D4400BF300A168A11F3240A168A110A30F200D7
:102D54000030F300831203134B08CC00CD014C0860
:102D6400F4004D08F5000A168A1199270A168A11EB
:102D74007208303E83160313C1000A30F20000309B
:102D8400F300831203134B08CC00CD014C08F4006C
:102D94004D08F5000A168A11DD260A168A117208F2
:102DA400303E83160313C200C3010A168A112B2472
:102DB4000A168A110800F701F51FE12EE22EE92E0A
:102DC400F409F509F40A0319F50AF701F70AF31FE0
:102DD400EC2EED2EF22EF209F309F20A0319F30A8E
:102DE400720873040319F72EF82E272FF601F60A3A
:102DF400062F01300310F20DF30DFF3E031DFC2ED0
:102E04000130FF007F08F607F31F092F0A2FFB2E5E
:102E140073087502031D102F72087402031C132F0C
:102E2400142F1A2F7208F4027308031CF503F50219
:102E340001300310F30CF20CFF3E031D1B2F013075
:102E4400F602031D262F272F0A2F770803192B2F8D
:102E54002C2F312FF409F509F40A0319F50A750822
:102E6400F3007408F2000800C330F700CD30F60018
:102E7400F60B3A2FF70B3A2FF20133300A168A1168
:102E8400BB230A168A111B30F7009E30F600F60B9E
:102E9400492FF70B492F0000F20133300A168A112B
:102EA400BB230A168A11A630F600F60B572F000032
:102EB400F20133300A168A11BB230A168A11622FD3
:102EC400632F0000F20102300A168A11BB230A168E
:102ED4008A11A630F600F60B6D2F0000F20128309F
:102EE4000A168A11BB230A168A11A630F600F60BBD
:102EF400792F0000F20101300A168A11BB230A1649
:102F04008A110430F7003D30F600F60B872FF70BDB
:102F1400872F8C2FF2010C300A168A11BB230A1654
:102F24008A11A630F600F60B952F00000800F70171
:102F3400F31F9D2F9E2FA52FF209F309F20A0319FF
:102F4400F30AF701F70AF51FA82FA92FB22FF409E6
:102F5400F509F40A0319F50A0130FF007F08F706A2
:102F6400F801F901720873040319B92FBA2FF12F6C
:102F7400F601F60AC82F01300310F20DF30DFF3EDF
:102F8400031DBE2F0130FF007F08F607F31FCB2F70
:102F9400CC2FBD2F01300310F80DF90DFF3E031D9A
:102FA400CD2F73087502031DD92F72087402031CF8
:102FB400DC2FDD2FE42F7208F4027308031CF503E1
:102FC400F502781401300310F30CF20CFF3E031DDC
:102FD400E52F0130F602031DF02FF12FCC2F7708D7
:102FE4000319F52FF62FFB2FF809F909F80A03192D
:0C2FF400F90A7908F3007808F2000800E0
:08400000FF3FFF3FFF3FFF3FC0
:02400E00FB3F76
:00000001FF
